{"abi":[{"type":"constructor","inputs":[],"stateMutability":"nonpayable"},{"type":"function","name":"decimals","inputs":[],"outputs":[{"name":"","type":"uint8","internalType":"uint8"}],"stateMutability":"view"},{"type":"function","name":"description","inputs":[],"outputs":[{"name":"","type":"string","internalType":"string"}],"stateMutability":"view"},{"type":"function","name":"getRoundData","inputs":[{"name":"roundId","type":"uint80","internalType":"uint80"}],"outputs":[{"name":"","type":"uint80","internalType":"uint80"},{"name":"","type":"int256","internalType":"int256"},{"name":"","type":"uint256","internalType":"uint256"},{"name":"","type":"uint256","internalType":"uint256"},{"name":"","type":"uint80","internalType":"uint80"}],"stateMutability":"view"},{"type":"function","name":"latestRoundData","inputs":[],"outputs":[{"name":"","type":"uint80","internalType":"uint80"},{"name":"","type":"int256","internalType":"int256"},{"name":"","type":"uint256","internalType":"uint256"},{"name":"","type":"uint256","internalType":"uint256"},{"name":"","type":"uint80","internalType":"uint80"}],"stateMutability":"view"},{"type":"function","name":"latestRoundId","inputs":[],"outputs":[{"name":"","type":"uint80","internalType":"uint80"}],"stateMutability":"view"},{"type":"function","name":"owner","inputs":[],"outputs":[{"name":"","type":"address","internalType":"address"}],"stateMutability":"view"},{"type":"function","name":"rounds","inputs":[{"name":"","type":"uint80","internalType":"uint80"}],"outputs":[{"name":"answer","type":"int256","internalType":"int256"},{"name":"startedAt","type":"uint256","internalType":"uint256"},{"name":"updatedAt","type":"uint256","internalType":"uint256"},{"name":"answeredInRound","type":"uint80","internalType":"uint80"}],"stateMutability":"view"},{"type":"function","name":"updateAnswer","inputs":[{"name":"newAnswer","type":"int256","internalType":"int256"}],"outputs":[],"stateMutability":"nonpayable"},{"type":"function","name":"version","inputs":[],"outputs":[{"name":"","type":"uint256","internalType":"uint256"}],"stateMutability":"view"},{"type":"event","name":"AnswerUpdated","inputs":[{"name":"current","type":"int256","indexed":true,"internalType":"int256"},{"name":"roundId","type":"uint80","indexed":true,"internalType":"uint80"},{"name":"updatedAt","type":"uint256","indexed":false,"internalType":"uint256"}],"anonymous":false}],"bytecode":{"object":"0x608060405234801561000f575f5ffd5b50336001600a6101000a81548173ffffffffffffffffffffffffffffffffffffffff021916908373ffffffffffffffffffffffffffffffffffffffff1602179055506001805f6101000a81548169ffffffffffffffffffff021916908369ffffffffffffffffffff1602179055506040518060800160405280642e90edd0008152602001428152602001428152602001600169ffffffffffffffffffff168152505f5f600169ffffffffffffffffffff1681526020019081526020015f205f820151815f015560208201518160010155604082015181600201556060820151816003015f6101000a81548169ffffffffffffffffffff021916908369ffffffffffffffffffff160217905550905050610b008061012b5f395ff3fe608060405234801561000f575f5ffd5b5060043610610091575f3560e01c80637284e416116100645780637284e416146101225780638da5cb5b146101405780639a6fc8f51461015e578063a87a20ce14610192578063feaf968c146101ae57610091565b806311a8f413146100955780632ede662f146100b3578063313ce567146100e657806354fd4d5014610104575b5f5ffd5b61009d6101d0565b6040516100aa919061064e565b60405180910390f35b6100cd60048036038101906100c89190610695565b6101eb565b6040516100dd94939291906106f0565b60405180910390f35b6100ee61022b565b6040516100fb919061074e565b60405180910390f35b61010c610230565b6040516101199190610767565b60405180910390f35b61012a610235565b60405161013791906107f0565b60405180910390f35b61014861026e565b604051610155919061084f565b60405180910390f35b61017860048036038101906101739190610695565b610294565b604051610189959493929190610868565b60405180910390f35b6101ac60048036038101906101a791906108e3565b61039d565b005b6101b66105f4565b6040516101c7959493929190610868565b60405180910390f35b60015f9054906101000a900469ffffffffffffffffffff1681565b5f602052805f5260405f205f91509050805f015490806001015490806002015490806003015f9054906101000a900469ffffffffffffffffffff16905084565b600881565b600181565b6040518060400160405280601381526020017f4d6f636b204f7261636c65204554482f5553440000000000000000000000000081525081565b6001600a9054906101000a900473ffffffffffffffffffffffffffffffffffffffff1681565b5f5f5f5f5f5f5f5f8869ffffffffffffffffffff1669ffffffffffffffffffff1681526020019081526020015f206040518060800160405290815f82015481526020016001820154815260200160028201548152602001600382015f9054906101000a900469ffffffffffffffffffff1669ffffffffffffffffffff1669ffffffffffffffffffff168152505090505f816060015169ffffffffffffffffffff1603610375576040517f08c379a000000000000000000000000000000000000000000000000000000000815260040161036c90610958565b60405180910390fd5b86815f0151826020015183604001518460600151955095509550955095505091939590929450565b6001600a9054906101000a900473ffffffffffffffffffffffffffffffffffffffff1673ffffffffffffffffffffffffffffffffffffffff163373ffffffffffffffffffffffffffffffffffffffff161461042d576040517f08c379a0000000000000000000000000000000000000000000000000000000008152600401610424906109e6565b60405180910390fd5b5f811361046f576040517f08c379a000000000000000000000000000000000000000000000000000000000815260040161046690610a4e565b60405180910390fd5b60015f81819054906101000a900469ffffffffffffffffffff168092919061049690610a99565b91906101000a81548169ffffffffffffffffffff021916908369ffffffffffffffffffff16021790555050604051806080016040528082815260200142815260200142815260200160015f9054906101000a900469ffffffffffffffffffff1669ffffffffffffffffffff168152505f5f60015f9054906101000a900469ffffffffffffffffffff1669ffffffffffffffffffff1669ffffffffffffffffffff1681526020019081526020015f205f820151815f015560208201518160010155604082015181600201556060820151816003015f6101000a81548169ffffffffffffffffffff021916908369ffffffffffffffffffff16021790555090505060015f9054906101000a900469ffffffffffffffffffff1669ffffffffffffffffffff16817f5b196ccf306f345de8745dffeaf185f4cafe74a334e2b2466d04c880071533b9426040516105e99190610767565b60405180910390a350565b5f5f5f5f5f61061960015f9054906101000a900469ffffffffffffffffffff16610294565b945094509450945094509091929394565b5f69ffffffffffffffffffff82169050919050565b6106488161062a565b82525050565b5f6020820190506106615f83018461063f565b92915050565b5f5ffd5b6106748161062a565b811461067e575f5ffd5b50565b5f8135905061068f8161066b565b92915050565b5f602082840312156106aa576106a9610667565b5b5f6106b784828501610681565b91505092915050565b5f819050919050565b6106d2816106c0565b82525050565b5f819050919050565b6106ea816106d8565b82525050565b5f6080820190506107035f8301876106c9565b61071060208301866106e1565b61071d60408301856106e1565b61072a606083018461063f565b95945050505050565b5f60ff82169050919050565b61074881610733565b82525050565b5f6020820190506107615f83018461073f565b92915050565b5f60208201905061077a5f8301846106e1565b92915050565b5f81519050919050565b5f82825260208201905092915050565b8281835e5f83830152505050565b5f601f19601f8301169050919050565b5f6107c282610780565b6107cc818561078a565b93506107dc81856020860161079a565b6107e5816107a8565b840191505092915050565b5f6020820190508181035f83015261080881846107b8565b905092915050565b5f73ffffffffffffffffffffffffffffffffffffffff82169050919050565b5f61083982610810565b9050919050565b6108498161082f565b82525050565b5f6020820190506108625f830184610840565b92915050565b5f60a08201905061087b5f83018861063f565b61088860208301876106c9565b61089560408301866106e1565b6108a260608301856106e1565b6108af608083018461063f565b9695505050505050565b6108c2816106c0565b81146108cc575f5ffd5b50565b5f813590506108dd816108b9565b92915050565b5f602082840312156108f8576108f7610667565b5b5f610905848285016108cf565b91505092915050565b7f526f756e64206e6f7420666f756e6400000000000000000000000000000000005f82015250565b5f610942600f8361078a565b915061094d8261090e565b602082019050919050565b5f6020820190508181035f83015261096f81610936565b9050919050565b7f4f6e6c79206f776e65722063616e2063616c6c20746869732066756e6374696f5f8201527f6e00000000000000000000000000000000000000000000000000000000000000602082015250565b5f6109d060218361078a565b91506109db82610976565b604082019050919050565b5f6020820190508181035f8301526109fd816109c4565b9050919050565b7f416e73776572206d75737420626520706f7369746976650000000000000000005f82015250565b5f610a3860178361078a565b9150610a4382610a04565b602082019050919050565b5f6020820190508181035f830152610a6581610a2c565b9050919050565b7f4e487b71000000000000000000000000000000000000000000000000000000005f52601160045260245ffd5b5f610aa38261062a565b915069ffffffffffffffffffff8203610abf57610abe610a6c565b5b60018201905091905056fea2646970667358221220fa78c42bf36b3ad5c33e1642f3683d9a435592e9f0c5010d3f0b03c35fbe0cb664736f6c63430008210033","linkReferences":{}},"methodIdentifiers":{"decimals()":"313ce567","description()":"7284e416","getRoundData(uint80)":"9a6fc8f5","latestRoundData()":"feaf968c","latestRoundId()":"11a8f413","owner()":"8da5cb5b","rounds(uint80)":"2ede662f","updateAnswer(int256)":"a87a20ce","version()":"54fd4d50"},"id":23}